:100000000C9434000C9451000C9451000C94510049
:100010000C9451000C9451000C9451000C9451001C
:100020000C9451000C9451000C9451000C9451000C
:100030000C9451000C9451000C9451000C945100FC
:100040000C9451000C9451000C9451000C945100EC
:100050000C9451000C9451000C9451000C945100DC
:100060000C9451000C94510011241FBECFEFD8E026
:10007000DEBFCDBF12E0A0E0B1E0E6E3FCE002C0ED
:1000800005900D92A034B107D9F722E0A0E4B2E0C8
:1000900001C01D92A235B207E1F70E9488010C94BD
:1000A00019060C9400002BB12F7030E1839FC00122
:1000B0001124822B8BB95998599A59988FEA94E058
:1000C0000197F1F700C000000895CF93C82F662371
:1000D00051F0589A8C2F82958F700E9453008C2F6C
:1000E000CF910C9453005898F5CF60E00C946500C4
:1000F00061E00C9465008AB1836F8AB92FEF80E7C5
:1001000092E0215080409040E1F700C000008BB1A8
:100110008C7F8BB98FE090E40197F1F700C000006D
:1001200083E00E9453008FE090E40197F1F700C054
:10013000000083E00E9453008FE090E40197F1F704
:1001400000C0000083E00E9453008FE090E401971C
:10015000F1F700C0000082E00E94530088E20E9494
:1001600075008FE090E40197F1F700C0000088E28D
:100170000E9475008FE090E40197F1F700C0000045
:1001800088E20E9475008FE090E40197F1F700C0CB
:10019000000084E0809351028CE00C947500809103
:1001A0005102982F9460909351028C600C947500CA
:1001B000809151028B7F8093510288600C9475006E
:1001C00081E00E9475008FE39FE10197F1F700C085
:1001D0000000089582E00E9475008FE39FE101977F
:1001E000F1F700C00000089580915102982F9160AE
:1001F0009093510289600C947500809151028E7F1A
:100200008093510288600C94750080915102982F60
:100210009260909351028A600C9475008091510213
:100220008D7F8093510288600C94750088E10C9456
:1002300075008CE10C94750080915102982F9260AA
:100240009093510286600C947500809151028D7FCD
:100250008093510284600C94750080915102982F14
:1002600091609093510285600C94750080915102C9
:100270008E7F8093510284600C9475000F931F93BE
:10028000CF93DF938B0128E0829FC00111248873F4
:1002900080640E947500E801085F1F4F89910E94E9
:1002A0007800C017D107D1F780E8DF91CF911F9177
:1002B0000F910C947500E62FF0E0E05CFE4F90810A
:1002C000890F80680C947500CF93DF93EC018991BE
:1002D000811103C0DF91CF9108950E947800F7CF7C
:1002E000CF93DF93CDB7DEB79E012B5F3F4FF90170
:1002F000419151919F0161E170E080E492E00E94A0
:10030000AA0280E492E00E946401DF91CF910895F7
:10031000CDB7DEB72C970FB6F894DEBF0FBECDBFBA
:100320000E947B00E0900601F0900701809112018D
:1003300090911301E80EF91E80911E0190911F010A
:10034000E80EF91E80912A0190912B01E80EF91E0A
:100350008091360190913701E80EF91E9CE0D92E6C
:100360000E949A02B7010E940F024091060150912B
:100370000701E0E0F1E020E030E0841795075CF44D
:1003800020E030E00FC062897389460F571F3C960A
:10039000841795073CF02F5F3F4F2530310599F7C3
:1003A0002FEF3FEFD29EC001D39E900D11248050BD
:1003B0009F4FFC01DE0111962D2D01900D922A9583
:1003C000E1F7FC01A084B184828493840E949A02A4
:1003D000B5010E940F028C018816990629F4019636
:1003E000B5010E940F028C0160E080E00E945B0179
:1003F000F801EE0FFF1F81E090E08C0F9D1FE80FCA
:10040000F91F808191810E9464019FEFE3E2F4EF84
:100410009150E040F040E1F700C00000A1CF97FB11
:10042000072E16F4009407D077FD09D00E9423020E
:1004300007FC05D03EF4909581959F4F08957095E7
:1004400061957F4F0895AA1BBB1B51E107C0AA1FEE
:10045000BB1FA617B70710F0A61BB70B881F991F65
:100460005A95A9F780959095BC01CD010895CF923A
:10047000DF92EF92FF92CF93DF93CDB7DEB72A974B
:100480000FB6F894DEBF0FBECDBF89879A87A985C6
:10049000BA852D913D914D915C9129833A834B838F
:1004A0005C8382E49EECACE0BFE12115310541059F
:1004B000510549F1CA01B9012DE133EF41E050E0A6
:1004C0000E947F0569017A01A7EAB1E49B01AC01B2
:1004D0000E949E0569837A838B839C83ACEEB4EF84
:1004E000A70196010E94AC059B01AC0189819A810C
:1004F000AB81BC81820F931FA41FB51FB7FF03C040
:100500000197A109B048E985FA8580839183A28388
:10051000B3839F772A960FB6F894DEBF0FBECDBF88
:10052000DF91CF91FF90EF90DF90CF9008950E94E0
:10053000370208958CE391E00E9437020895A0E00D
:10054000B0E080933C0190933D01A0933E01B093B5
:100550003F010895AEE0B0E0E0EBF2E00C94BF059F
:100560008C01F62FE72FBA01A90186E08C831A834C
:1005700009838F2F9E2F813020E8920710F080E0B2
:1005800090E801979E838D83CE0101960E94DA0246
:100590004D815E8157FD0AC02F8138854217530770
:1005A0000CF49A01020F131FF80110822E96E4E05A
:1005B0000C94DB05AFE0B0E0E0EEF2E00C94B405A3
:1005C0006C017B018A01DC0117961C921E92169722
:1005D00013968C9181FFECC12AE0522EF601938193
:1005E000F70193FD859193FF81917F01882309F4A1
:1005F00073C0853239F493FD859193FF81917F011A
:10060000853229F4B60190E00E94F104E7CF912CE5
:10061000612C712CFFE1F71508F446C08B32C9F14B
:10062000F8F48032C1F1833209F43BC0833609F417
:100630008AC0833709F493C0833509F0B6C0F80146
:10064000A190B1908F01692D70E076FC02C06FEF30
:100650007FEFC5010E94DB044C01689477F85FC00E
:100660008D32E1F0803351F020ED280F2A3048F12F
:100670008E3209F039C0689476F802C0689470F838
:10068000F70193FD859193FF81917F018111C2CF85
:1006900033C0689471F8689472F8F2CF689473F874
:1006A000EFCF689474F8ECCF77FC26C020ED280FCC
:1006B0002A3070F476FE05C0959C200D1124922EF0
:1006C000DFCF659C200D1124622E689475F8D8CF79
:1006D0008E3251F476FECFCFD60116968D919C9135
:1006E0002F96EFE00C94D0058C3619F4689477F8C7
:1006F000C7CF883609F4C4CF982F9F7D9554933087
:1007000008F094CF0C5F1F4F8FE389838824839474
:10071000912CAE014F5F5F4F5A01E89477F873FC5C
:1007200005C0862D90E08816990640F18114910449
:1007300061F5662009F452CFB60180E290E00E9494
:10074000F1046A94F6CFD8018C9189830E5F1F4F14
:1007500088248394912CFE0131965F01DECFD8016D
:10076000AD90BD908D01692D70E076FC02C06FEFF9
:100770007FEFC5010E94E6044C01CFCFB60180E2B5
:1007800090E00E94F1046A94CCCFF50177FC85914A
:1007900077FE81915F01B60190E00E94F104611043
:1007A0006A94F1E08F1A9108C1CF843619F0893626
:1007B00009F081C0F80177FE77C061917191819154
:1007C00091918F01272D2F76822E97FF09C090954A
:1007D0008095709561957F4F8F4F9F4F689487F8F4
:1007E0002AE030E0AE014F5F5F4F5A010E942105C1
:1007F0008A19A82EBA2C782C86FE0CC0E89470F8C2
:10080000A91440F484FE05C082FC03C0782D7E7ECE
:10081000772EB92C74FEA5C0FE01EA0DF11D808172
:10082000803309F097C0872D897E782E73FC0EC027
:1008300070FEA6C09A2CB61418F4960C9B18B62C11
:10084000862D8B196B1408F480E0B80EB61408F0EE
:1008500099C06B1874FE98C0B60180E390E00E94C6
:10086000F10472FE09C088E590E071FC02C088E7DF
:1008700090E0B6010E94F104A91408F492C0AA9471
:10088000B12C9FEFA91AB90ADE0111964D01AA0EEB
:10089000BB1EF50182915F01B60190E00E94F10458
:1008A0008A149B04B1F745CF61917191072E000C1A
:1008B000880B990B86CF872CE89484F82AE030E0E7
:1008C000853769F0572D597F852E803771F118F5DE
:1008D000883571F18F3609F0FFCE28E030E0F8015D
:1008E00087FE2EC081919191A191B1918C879D87B6
:1008F000AE87BF878F01BE016F5F7F4F5B01AB018A
:100900006C857D858E859F850E9421058A19A82E7C
:10091000E89487F86FCF883709F0DECE84FE02C0F6
:10092000689482F820E130E0DACF689484F8F6CF5A
:1009300074FE03C0652F6660862E20E132E0CFCFC3
:1009400081919191AC0160E070E04C875D876E878A
:100950007F87D0CF72FC02C0B39468CFB394B394B6
:1009600065CF872D8678882309F460CFF5CFB6014F
:1009700080E290E00E94F10483948614C0F360CF7B
:100980008B2CFBCF612C66CF872D8678882309F4CA
:1009900073CF8BE271FE80E277FC8DE2B60190E0CE
:1009A00069CFB60180E390E00E94F1049A9464CF8D
:1009B0008FEF9FEF95CEFC010590615070400110C4
:1009C000D8F7809590958E0F9F1F0895FC01615078
:1009D000704001900110D8F7809590958E0F9F1F61
:1009E00008950F931F93CF93DF93182F092FEB01D7
:1009F0008B8181FD09C01FEF0FEF812F902FDF91B9
:100A0000CF911F910F91089582FF14C02E813F81D5
:100A10008C819D81281739073CF4E881F981CF0149
:100A200001969983888310838E819F8101969F838D
:100A30008E83E3CFE885F985812F0995892BA1F372
:100A4000DACFFA01AA27283051F1203181F1E89458
:100A50006F936E7F6E5F7F4F8F4F9F4FAF4FB1E0B1
:100A60003ED0B4E03CD0670F781F891F9A1FA11DAC
:100A7000680F791F8A1F911DA11D6A0F711D811DAD
:100A8000911DA11D20D009F468943F912AE0269F72
:100A900011243019305D3193DEF6CF010895462FD1
:100AA0004770405D4193B3E00FD0C9F7F6CF462FB2
:100AB0004F70405D4A3318F0495D31FD405241931B
:100AC00002D0A9F7EACFB4E0A695979587957795D8
:100AD0006795BA95C9F700976105710508959B015F
:100AE000AC010A2E06945795479537952795BA95E8
:100AF000C9F7620F731F841F951FA01D0895052E4F
:100B000097FB1EF400940E94960557FD07D00E94A3
:100B1000E80507FC03D04EF40C94960550954095DB
:100B2000309521953F4F4F4F5F4F08959095809599
:100B3000709561957F4F8F4F9F4F08950E940A06D1
:100B4000A59F900DB49F900DA49F800D911D112421
:100B50000895B7FF0C949E050E949E05821B930B7F
:100B600008952F923F924F925F926F927F928F9251
:100B70009F92AF92BF92CF92DF92EF92FF920F932C
:100B80001F93CF93DF93CDB7DEB7CA1BDB0B0FB636
:100B9000F894DEBF0FBECDBF09942A8839884888F3
:100BA0005F846E847D848C849B84AA84B984C88489
:100BB000DF80EE80FD800C811B81AA81B981CE0F80
:100BC000D11D0FB6F894DEBF0FBECDBFED01089565
:100BD000A1E21A2EAA1BBB1BFD010DC0AA1FBB1F41
:100BE000EE1FFF1FA217B307E407F50720F0A21BB3
:100BF000B30BE40BF50B661F771F881F991F1A9420
:100C000069F760957095809590959B01AC01BD0149
:100C1000CF010895A29FB001B39FC001A39F700DA3
:100C2000811D1124911DB29F700D811D1124911DF4
:060C30000895F894FFCFC7
:100C360044015601730188130300FFFF8A01A201D4
:100C46000000A00F0200FFFFB701CF010000B80BA4
:100C56000200FFFFF3010B020000DC050200FFFFAC
:100C6600240200000000E8030100FFFF010000006D
:100C7600004014544B6F702062696C20686F7320BB
:100C8600486172727900456E20676F642062696CF4
:100C960061666661722028666F7220486172727999
:100CA60021290048656465726C6967652048617230
:100CB6007279732042696C6172004D797374657242
:100CC6006965723F2052696E67204C616E67626586
:100CD6006E004C616E6762656E206669786172208F
:100CE60062696666656E004B6F702070616A206887
:100CF6006F73204661726D6F7220416E6B61005397
:100D06006B796E646120696E6E616E204D617274DE
:100D1600656E206174697420616C6C612070616A13
:100D26006572004C61742050657474657220627936
:100D3600676761206174206469670042796767614B
:100D46002073766172743F2052696E672050657415
:100D56007465720053796E6173206861723F204931
:100D66004F543A732052656B6C616D627972610003
:00000001FF
